{
  "contractName": "LiquidityMigrator",
  "abi": [
    {
      "inputs": [
        {
          "internalType": "address",
          "name": "_router",
          "type": "address"
        },
        {
          "internalType": "address",
          "name": "_pair",
          "type": "address"
        },
        {
          "internalType": "address",
          "name": "_routerFork",
          "type": "address"
        },
        {
          "internalType": "address",
          "name": "_pairFork",
          "type": "address"
        },
        {
          "internalType": "address",
          "name": "_bonusToken",
          "type": "address"
        }
      ],
      "stateMutability": "nonpayable",
      "type": "constructor"
    },
    {
      "inputs": [],
      "name": "admin",
      "outputs": [
        {
          "internalType": "address",
          "name": "",
          "type": "address"
        }
      ],
      "stateMutability": "view",
      "type": "function"
    },
    {
      "inputs": [],
      "name": "bonusToken",
      "outputs": [
        {
          "internalType": "contract BonusToken",
          "name": "",
          "type": "address"
        }
      ],
      "stateMutability": "view",
      "type": "function"
    },
    {
      "inputs": [],
      "name": "migrationDone",
      "outputs": [
        {
          "internalType": "bool",
          "name": "",
          "type": "bool"
        }
      ],
      "stateMutability": "view",
      "type": "function"
    },
    {
      "inputs": [],
      "name": "pair",
      "outputs": [
        {
          "internalType": "contract IUniswapV2Pair",
          "name": "",
          "type": "address"
        }
      ],
      "stateMutability": "view",
      "type": "function"
    },
    {
      "inputs": [],
      "name": "pairFork",
      "outputs": [
        {
          "internalType": "contract IUniswapV2Pair",
          "name": "",
          "type": "address"
        }
      ],
      "stateMutability": "view",
      "type": "function"
    },
    {
      "inputs": [],
      "name": "router",
      "outputs": [
        {
          "internalType": "contract IUniswapV2Router02",
          "name": "",
          "type": "address"
        }
      ],
      "stateMutability": "view",
      "type": "function"
    },
    {
      "inputs": [],
      "name": "routerFork",
      "outputs": [
        {
          "internalType": "contract IUniswapV2Router02",
          "name": "",
          "type": "address"
        }
      ],
      "stateMutability": "view",
      "type": "function"
    },
    {
      "inputs": [
        {
          "internalType": "address",
          "name": "",
          "type": "address"
        }
      ],
      "name": "unclaimedBalances",
      "outputs": [
        {
          "internalType": "uint256",
          "name": "",
          "type": "uint256"
        }
      ],
      "stateMutability": "view",
      "type": "function"
    },
    {
      "inputs": [
        {
          "internalType": "uint256",
          "name": "amount",
          "type": "uint256"
        }
      ],
      "name": "deposit",
      "outputs": [],
      "stateMutability": "nonpayable",
      "type": "function"
    },
    {
      "inputs": [],
      "name": "migrate",
      "outputs": [],
      "stateMutability": "nonpayable",
      "type": "function"
    },
    {
      "inputs": [],
      "name": "claimLptokens",
      "outputs": [],
      "stateMutability": "nonpayable",
      "type": "function"
    }
  ],
  "bytecode": "0x60806040523480156200001157600080fd5b5060405162001870380380620018708339818101604052810190620000379190620001de565b846000806101000a81548173ffffffffffffffffffffffffffffffffffffffff021916908373ffffffffffffffffffffffffffffffffffffffff16021790555083600160006101000a81548173ffffffffffffffffffffffffffffffffffffffff021916908373ffffffffffffffffffffffffffffffffffffffff16021790555082600260006101000a81548173ffffffffffffffffffffffffffffffffffffffff021916908373ffffffffffffffffffffffffffffffffffffffff16021790555081600360006101000a81548173ffffffffffffffffffffffffffffffffffffffff021916908373ffffffffffffffffffffffffffffffffffffffff16021790555080600460006101000a81548173ffffffffffffffffffffffffffffffffffffffff021916908373ffffffffffffffffffffffffffffffffffffffff16021790555033600560006101000a81548173ffffffffffffffffffffffffffffffffffffffff021916908373ffffffffffffffffffffffffffffffffffffffff1602179055505050505050620002ae565b600081519050620001d88162000294565b92915050565b600080600080600060a08688031215620001f757600080fd5b60006200020788828901620001c7565b95505060206200021a88828901620001c7565b94505060406200022d88828901620001c7565b93505060606200024088828901620001c7565b92505060806200025388828901620001c7565b9150509295509295909350565b60006200026d8262000274565b9050919050565b600073ffffffffffffffffffffffffffffffffffffffff82169050919050565b6200029f8162000260565b8114620002ab57600080fd5b50565b6115b280620002be6000396000f3fe608060405234801561001057600080fd5b50600436106100a95760003560e01c80638bf6afaf116100715780638bf6afaf146101305780638fd3ab8014610160578063a8aa1b311461016a578063b6b55f2514610188578063f851a440146101a4578063f887ea40146101c2576100a9565b80630d81a570146100ae57806341d4a1ab146100cc57806352c7262e146100ea57806359201402146100f4578063766faf3614610112575b600080fd5b6100b66101e0565b6040516100c391906112b4565b60405180910390f35b6100d46101f3565b6040516100e191906112cf565b60405180910390f35b6100f2610219565b005b6100fc61042e565b60405161010991906112ea565b60405180910390f35b61011a610454565b6040516101279190611305565b60405180910390f35b61014a60048036038101906101459190610e4b565b61047a565b60405161015791906113c0565b60405180910390f35b610168610492565b005b610172610b82565b60405161017f91906112ea565b60405180910390f35b6101a2600480360381019061019d9190610ec6565b610ba8565b005b6101ac610d98565b6040516101b9919061114c565b60405180910390f35b6101ca610dbe565b6040516101d79190611305565b60405180910390f35b600760009054906101000a900460ff1681565b600460009054906101000a900473ffffffffffffffffffffffffffffffffffffffff1681565b6000600660003373ffffffffffffffffffffffffffffffffffffffff1673ffffffffffffffffffffffffffffffffffffffff16815260200190815260200160002054101561029c576040517f08c379a000000000000000000000000000000000000000000000000000000000815260040161029390611360565b60405180910390fd5b60011515600760009054906101000a900460ff161515146102f2576040517f08c379a00000000000000000000000000000000000000000000000000000000081526004016102e990611320565b60405180910390fd5b6000600660003373ffffffffffffffffffffffffffffffffffffffff1673ffffffffffffffffffffffffffffffffffffffff1681526020019081526020016000205490506000600660003373ffffffffffffffffffffffffffffffffffffffff1673ffffffffffffffffffffffffffffffffffffffff16815260200190815260200160002081905550600360009054906101000a900473ffffffffffffffffffffffffffffffffffffffff1673ffffffffffffffffffffffffffffffffffffffff1663a9059cbb33836040518363ffffffff1660e01b81526004016103d892919061128b565b602060405180830381600087803b1580156103f257600080fd5b505af1158015610406573d6000803e3d6000fd5b505050506040513d601f19601f8201168201806040525081019061042a9190610e9d565b5050565b600360009054906101000a900473ffffffffffffffffffffffffffffffffffffffff1681565b600260009054906101000a900473ffffffffffffffffffffffffffffffffffffffff1681565b60066020528060005260406000206000915090505481565b600560009054906101000a900473ffffffffffffffffffffffffffffffffffffffff1673ffffffffffffffffffffffffffffffffffffffff163373ffffffffffffffffffffffffffffffffffffffff1614610522576040517f08c379a000000000000000000000000000000000000000000000000000000000815260040161051990611380565b60405180910390fd5b60001515600760009054906101000a900460ff16151514610578576040517f08c379a000000000000000000000000000000000000000000000000000000000815260040161056f90611340565b60405180910390fd5b6000600160009054906101000a900473ffffffffffffffffffffffffffffffffffffffff1673ffffffffffffffffffffffffffffffffffffffff16630dfe16816040518163ffffffff1660e01b815260040160206040518083038186803b1580156105e257600080fd5b505afa1580156105f6573d6000803e3d6000fd5b505050506040513d601f19601f8201168201806040525081019061061a9190610e74565b90506000600160009054906101000a900473ffffffffffffffffffffffffffffffffffffffff1673ffffffffffffffffffffffffffffffffffffffff1663d21220a76040518163ffffffff1660e01b815260040160206040518083038186803b15801561068657600080fd5b505afa15801561069a573d6000803e3d6000fd5b505050506040513d601f19601f820116820180604052508101906106be9190610e74565b90506000600160009054906101000a900473ffffffffffffffffffffffffffffffffffffffff1673ffffffffffffffffffffffffffffffffffffffff166370a08231306040518263ffffffff1660e01b815260040161071d919061114c565b60206040518083038186803b15801561073557600080fd5b505afa158015610749573d6000803e3d6000fd5b505050506040513d601f19601f8201168201806040525081019061076d9190610eef565b905060008054906101000a900473ffffffffffffffffffffffffffffffffffffffff1673ffffffffffffffffffffffffffffffffffffffff1663baa2abde84848460008030426040518863ffffffff1660e01b81526004016107d5979695949392919061119e565b6040805180830381600087803b1580156107ee57600080fd5b505af1158015610802573d6000803e3d6000fd5b505050506040513d601f19601f820116820180604052508101906108269190610f18565b505060008373ffffffffffffffffffffffffffffffffffffffff166370a08231306040518263ffffffff1660e01b8152600401610863919061114c565b60206040518083038186803b15801561087b57600080fd5b505afa15801561088f573d6000803e3d6000fd5b505050506040513d601f19601f820116820180604052508101906108b39190610eef565b905060008473ffffffffffffffffffffffffffffffffffffffff166370a08231306040518263ffffffff1660e01b81526004016108f0919061114c565b60206040518083038186803b15801561090857600080fd5b505afa15801561091c573d6000803e3d6000fd5b505050506040513d601f19601f820116820180604052508101906109409190610eef565b90508473ffffffffffffffffffffffffffffffffffffffff1663095ea7b3600260009054906101000a900473ffffffffffffffffffffffffffffffffffffffff16846040518363ffffffff1660e01b815260040161099f92919061128b565b602060405180830381600087803b1580156109b957600080fd5b505af11580156109cd573d6000803e3d6000fd5b505050506040513d601f19601f820116820180604052508101906109f19190610e9d565b508373ffffffffffffffffffffffffffffffffffffffff1663095ea7b3600260009054906101000a900473ffffffffffffffffffffffffffffffffffffffff16836040518363ffffffff1660e01b8152600401610a4f92919061128b565b602060405180830381600087803b158015610a6957600080fd5b505af1158015610a7d573d6000803e3d6000fd5b505050506040513d601f19601f82011682018060405250810190610aa19190610e9d565b50600260009054906101000a900473ffffffffffffffffffffffffffffffffffffffff1673ffffffffffffffffffffffffffffffffffffffff1663e8e3370086868585878730426040518963ffffffff1660e01b8152600401610b0b98979695949392919061120d565b606060405180830381600087803b158015610b2557600080fd5b505af1158015610b39573d6000803e3d6000fd5b505050506040513d601f19601f82011682018060405250810190610b5d9190610f54565b5050506001600760006101000a81548160ff0219169083151502179055505050505050565b600160009054906101000a900473ffffffffffffffffffffffffffffffffffffffff1681565b60001515600760009054906101000a900460ff16151514610bfe576040517f08c379a0000000000000000000000000000000000000000000000000000000008152600401610bf5906113a0565b60405180910390fd5b600160009054906101000a900473ffffffffffffffffffffffffffffffffffffffff1673ffffffffffffffffffffffffffffffffffffffff166323b872dd3330846040518463ffffffff1660e01b8152600401610c5d93929190611167565b602060405180830381600087803b158015610c7757600080fd5b505af1158015610c8b573d6000803e3d6000fd5b505050506040513d601f19601f82011682018060405250810190610caf9190610e9d565b50600460009054906101000a900473ffffffffffffffffffffffffffffffffffffffff1673ffffffffffffffffffffffffffffffffffffffff166340c10f1933836040518363ffffffff1660e01b8152600401610d0d92919061128b565b600060405180830381600087803b158015610d2757600080fd5b505af1158015610d3b573d6000803e3d6000fd5b5050505080600660003373ffffffffffffffffffffffffffffffffffffffff1673ffffffffffffffffffffffffffffffffffffffff1681526020019081526020016000206000828254610d8e91906113ec565b9250508190555050565b600560009054906101000a900473ffffffffffffffffffffffffffffffffffffffff1681565b60008054906101000a900473ffffffffffffffffffffffffffffffffffffffff1681565b600081359050610df181611537565b92915050565b600081519050610e0681611537565b92915050565b600081519050610e1b8161154e565b92915050565b600081359050610e3081611565565b92915050565b600081519050610e4581611565565b92915050565b600060208284031215610e5d57600080fd5b6000610e6b84828501610de2565b91505092915050565b600060208284031215610e8657600080fd5b6000610e9484828501610df7565b91505092915050565b600060208284031215610eaf57600080fd5b6000610ebd84828501610e0c565b91505092915050565b600060208284031215610ed857600080fd5b6000610ee684828501610e21565b91505092915050565b600060208284031215610f0157600080fd5b6000610f0f84828501610e36565b91505092915050565b60008060408385031215610f2b57600080fd5b6000610f3985828601610e36565b9250506020610f4a85828601610e36565b9150509250929050565b600080600060608486031215610f6957600080fd5b6000610f7786828701610e36565b9350506020610f8886828701610e36565b9250506040610f9986828701610e36565b9150509250925092565b610fac81611442565b82525050565b610fbb81611454565b82525050565b610fca8161148a565b82525050565b610fd9816114ae565b82525050565b610fe8816114d2565b82525050565b610ff7816114f6565b82525050565b600061100a6016836113db565b91507f6d6967726174696f6e20626f7420646f6e6520796574000000000000000000006000830152602082019050919050565b600061104a6016836113db565b91507f6d6967726174696f6e20616c726561647920646f6e65000000000000000000006000830152602082019050919050565b600061108a6014836113db565b91507f6e6f20756e636c61696d65642062616c616e63650000000000000000000000006000830152602082019050919050565b60006110ca600a836113db565b91507f6f6e6c752061646d696e000000000000000000000000000000000000000000006000830152602082019050919050565b600061110a6016836113db565b91507f6d69677261746f696e20616c726561647920736f6e65000000000000000000006000830152602082019050919050565b61114681611480565b82525050565b60006020820190506111616000830184610fa3565b92915050565b600060608201905061117c6000830186610fa3565b6111896020830185610fa3565b611196604083018461113d565b949350505050565b600060e0820190506111b3600083018a610fa3565b6111c06020830189610fa3565b6111cd604083018861113d565b6111da6060830187610fee565b6111e76080830186610fee565b6111f460a0830185610fa3565b61120160c083018461113d565b98975050505050505050565b600061010082019050611223600083018b610fa3565b611230602083018a610fa3565b61123d604083018961113d565b61124a606083018861113d565b611257608083018761113d565b61126460a083018661113d565b61127160c0830185610fa3565b61127e60e083018461113d565b9998505050505050505050565b60006040820190506112a06000830185610fa3565b6112ad602083018461113d565b9392505050565b60006020820190506112c96000830184610fb2565b92915050565b60006020820190506112e46000830184610fc1565b92915050565b60006020820190506112ff6000830184610fd0565b92915050565b600060208201905061131a6000830184610fdf565b92915050565b6000602082019050818103600083015261133981610ffd565b9050919050565b600060208201905081810360008301526113598161103d565b9050919050565b600060208201905081810360008301526113798161107d565b9050919050565b60006020820190508181036000830152611399816110bd565b9050919050565b600060208201905081810360008301526113b9816110fd565b9050919050565b60006020820190506113d5600083018461113d565b92915050565b600082825260208201905092915050565b60006113f782611480565b915061140283611480565b9250827fffffffffffffffffffffffffffffffffffffffffffffffffffffffffffffffff0382111561143757611436611508565b5b828201905092915050565b600061144d82611460565b9050919050565b60008115159050919050565b600073ffffffffffffffffffffffffffffffffffffffff82169050919050565b6000819050919050565b60006114958261149c565b9050919050565b60006114a782611460565b9050919050565b60006114b9826114c0565b9050919050565b60006114cb82611460565b9050919050565b60006114dd826114e4565b9050919050565b60006114ef82611460565b9050919050565b600061150182611480565b9050919050565b7f4e487b7100000000000000000000000000000000000000000000000000000000600052601160045260246000fd5b61154081611442565b811461154b57600080fd5b50565b61155781611454565b811461156257600080fd5b50565b61156e81611480565b811461157957600080fd5b5056fea2646970667358221220d34e3fd111cf7177099ad629c9b587fe6f977ca69066ba77436f51c599c72b8664736f6c63430008000033",
  "immutableReferences": {},
  "source": "// SPDX-License-Identifier: MIT\n//pragma solidity >=0.6.6 <0.9.0;\npragma solidity ^0.8.0;\nimport \"@openzeppelin/contracts/token/ERC20/IERC20.sol\";\nimport \"@uniswap/v2-periphery/contracts/interfaces/IUniswapV2Router02.sol\";\nimport \"./IUniswapV2Pair.sol\";\nimport \"./BonusToken.sol\";\ncontract LiquidityMigrator {\n\n\tIUniswapV2Router02 public router;\n\tIUniswapV2Pair public pair;\n\tIUniswapV2Router02 public routerFork;\n\tIUniswapV2Pair public pairFork;\n\tBonusToken public bonusToken;\n\taddress public admin;\n\n\tmapping(address => uint) public unclaimedBalances;\n\tbool public migrationDone;\n\n\tconstructor(address _router, address _pair, address _routerFork, address _pairFork, address _bonusToken) public {\n\t\trouter = IUniswapV2Router02(_router);\n\t\tpair = IUniswapV2Pair(_pair);\n\t\trouterFork = IUniswapV2Router02(_routerFork);\n\t\tpairFork = IUniswapV2Pair(_pairFork);\n\t\tbonusToken = BonusToken(_bonusToken);\n\t\tadmin = msg.sender;\n\t}\n\n\tfunction deposit(uint amount) external {\n\t\trequire(migrationDone == false, 'migratoin already sone');\n\t\tpair.transferFrom(msg.sender, address(this),  amount );\n\t\tbonusToken.mint(msg.sender, amount);\n\t\tunclaimedBalances[msg.sender] += amount;\n\t}\n\n\tfunction migrate() external  {\n\n\t\trequire(msg.sender == admin, 'onlu admin');\n\t\trequire(migrationDone == false, 'migration already done');\n\t\tIERC20 token0 = IERC20(pair.token0());\n\t\tIERC20 token1 = IERC20(pair.token1());\n\t\tuint totalBalance = pair.balanceOf(address(this));\n\t\trouter.removeLiquidity( address(token0), address(token1), totalBalance, 0 , 0, address(this), block.timestamp);\n\t\tuint token0Balance = token0.balanceOf(address(this));\n\t\tuint token1Balance = token0.balanceOf(address(this));\n\t\ttoken0.approve(address(routerFork), token0Balance);\n\t\ttoken1.approve(address(routerFork), token1Balance);\n\t\trouterFork.addLiquidity(\n\t\t\taddress(token0),\n\t\t\taddress(token1),\n\t\t\ttoken0Balance,\n\t\t\ttoken1Balance,\n\t\t\ttoken0Balance,\n\t\t\ttoken1Balance,\n\t\t\taddress(this),\n\t\t\tblock.timestamp\n\t\t) ;\n\t\tmigrationDone = true;\n\t}\n\n\tfunction claimLptokens() external {\n\t\trequire(unclaimedBalances[msg.sender] >= 0, 'no unclaimed balance');\n\t\trequire(migrationDone == true, 'migration bot done yet');\n\t\tuint amountToSend = unclaimedBalances[msg.sender];\n\t\tunclaimedBalances[msg.sender] = 0;\n\t\tpairFork.transfer(msg.sender, amountToSend); \n\t}\n}\n",
  "sourcePath": "/Users/sl2studio-157/Desktop/forking/migrator/contracts/LiquidityMigrator.sol",
  "compiler": {
    "name": "solc",
    "version": "0.8.0+commit.c7dfd78e.Emscripten.clang"
  },
  "schemaVersion": "3.4.7",
  "updatedAt": "2022-05-14T11:44:28.911Z",
  "devdoc": {
    "kind": "dev",
    "methods": {},
    "version": 1
  },
  "userdoc": {
    "kind": "user",
    "methods": {},
    "version": 1
  }
}